# task 4

* Search for how ethereum address is generated from public key
* Convert signed txn from my ether wallet to unsigned txn
* Code for RLP encoding
* Hash the unsigned txn 
* Sign the digest using the private key
* Generate V using
* Create RLP encoded signed txn from the derived R and S values
* Broadcast the signed txn using ethers scan

## Transcation Details

  
0xf86b02847735940082520894c0095a58489ba23cb5c6808dc0bbbf1cdca32aca8802c68af0bb140000802aa052975d44a183eff9c495cd1b50aa17ad5536552b2007cb9a2a58c1abf74614d8a051b670142c71b8feadea5e5cfde8c5a0c61c7504f1de4b32e9f8ae50b5eb5afd

0xf86b02847735940082520894c0095a58489ba23cb5c6808dc0bbbf1cdca32aca8802c68af0bb140000802aa052975d44a183eff9c495cd1b50aa17ad5536552b2007cb9a2a58c1abf74614d8a051b670142c71b8feadea5e5cfde8c5a0c61c7504f1de4b32e9f8ae50b5eb5afd


{ "nonce": "0x02", "gasLimit": "0x5208", "gasPrice": "0x77359400", "to": "0xc0095a58489ba23cb5c6808dc0bbbf1cdca32aca", "value": "2c68af0bb140000", "data": "0x", "chainId": 3 }